:020000040800F2
:10000000B8080020A1010008850F00087D0F000836
:10001000810F000853060008AD140008000000001E
:10002000000000000000000000000000C1110008F6
:100030006F0D000800000000870F0008D5120008AF
:10004000BB010008BB010008BB010008BB010008A0
:10005000BB010008BB010008BB010008BB01000890
:10006000BB010008BB010008BB010008BB01000880
:10007000BB010008BB010008BB010008BB01000870
:10008000BB010008BB010008BB010008BB01000860
:10009000BB010008BB010008BB010008BB01000850
:1000A000BB010008BB010008BB010008BB01000840
:1000B000BB010008BB010008BB010008BB01000830
:1000C000BB010008BB010008BB010008BB01000820
:1000D000BB010008BB010008BB010008BB01000810
:1000E000BB010008BB010008BB010008BB01000800
:1000F00000F002F800F045F80AA090E8000C8244F5
:100100008344AAF10107DA4501D100F03AF8AFF2D1
:10011000090EBAE80F0013F0010F18BFFB1A43F0E5
:1001200001031847F417000014180000103A24BF08
:1001300078C878C1FAD8520724BF30C830C144BF4C
:1001400004680C607047000000230024002500268E
:10015000103A28BF78C1FBD8520728BF30C148BF2A
:100160000B607047642900F09780782900F0D080F8
:10017000732900F00382002070471FB51FBD10B522
:1001800010BD00F02DFA1146FFF7F7FF01F0AAF9B4
:1001900000F04BFA03B4FFF7F2FF03BC00F052FA91
:1001A0000948804709480047FEE7FEE7FEE7FEE70B
:1001B000FEE7FEE7FEE7FEE7FEE7FEE70448054947
:1001C000054A064B70470000D9120008F1000008EC
:1001D000B8020020B8080020B8040020B8040020AD
:1001E0000FB4044910B503AA029800F0CBF910BC73
:1001F0005DF814FB2C00002070B50446856900688A
:10020000C10601D5302600E02026C00707D070BD0A
:10021000D4E9012130469047206A401C20626D1EBF
:10022000F6D570BD70B5044685690078C00707D162
:1002300070BDD4E9012120209047206A401C206233
:100240006D1EF6D570BD70B50C460546012A05D069
:100250002878800600D5EA69002302E0012305E042
:100260005B1C934202D2E05C0028F9D1A869E61831
:10027000C01AA861286A184428622846FFF7BCFF04
:1002800004E0D5E9012114F8010B9047B442F8D3FA
:100290002846FFF7C7FF70BD2DE9F0410646002450
:1002A00010687529314616A510D0AFF300800028DC
:1002B00002DA404213A507E031688A0701D512A58A
:1002C00002E0490704D511A5012401E0AFF3008045
:1002D00000210A2206F1240709E0B0FBF2FCB0FB82
:1002E000F2F302FB1C00303078541846491C0028F9
:1002F000F3D123462A463046BDE8F04100F0D3B89A
:10030000000000002D0000002B0000002000000075
:1003100070B504460D4621461068AFF30080218871
:10032000090502D50F4A7A4402E00E4A7A440E3299
:10033000002104F1240305E000F00F060009965D9A
:100340005E54491C0028F7D120780023000704D50B
:10035000702D02D009B1022311322046BDE8704051
:1003600000F0A1B8B21500002DE9F05F89460446FF
:100370004FF0000ADFF824B1FB44C0F820A020466B
:10038000E168884700287DD0252806D0D4E90121DE
:100390009047206A401C2062F1E700255F46204616
:1003A000E16888472028064607DB312E05D2B819B8
:1003B00010F8200C08B10543F1E7A80701D525F096
:1003C0000405C4F81CA00027C4F818A02A2E09D0E0
:1003D000304601F06DF838B304EB8708303EC8F8BA
:1003E000186019E059F8041B204604EB870291615C
:1003F000E1688847012F064618D1E069002820DA15
:1004000025F020051DE0D8F8180000EB800006EB71
:1004100040003038C8F818002046E1688847064692
:1004200001F046F80028EED1012F0AD02E2E08D177
:100430002046E16888477F1C0646022F45F02005CC
:10044000C4DBA069002803DA404245F00105A06141
:10045000E80701D025F01005A6B1A6F14100192842
:1004600002D8203645F400654A46314620462560CC
:100470004D46FFF777FE60B1012807D0ED1D25F04E
:10048000070000E007E000F1080978E705F104093A
:1004900075E730467AE7206ABDE8F09F88150000CE
:1004A0007047704770472DE9F0470D4699469246D0
:1004B000044600F124080168880604D5E06921F0AB
:1004C0001001216000E00120A84201DD471B00E08F
:1004D0000027A1697A1902EB0900081AA0612078A7
:1004E000C00602D42046FFF787FE002608E0D4E9C4
:1004F00001211AF806009047206A401C761C2062F1
:100500004E45F4DB2078C0060AD52046FFF774FE7E
:1005100006E0D4E9012130209047206A401C206287
:10052000381EA7F10107F4DC07E0D4E9012118F82F
:1005300005009047206A401C2062281EA5F1010595
:10054000F3DC2046FFF76EFE2078000602D502207D
:10055000BDE8F0870120FBE710B5436913B1AFF3A5
:10056000008001E0FFF76FFE012010BD127800F15E
:1005700024010A7000224A700122EDE711684FF051
:10058000FF32E9E7074B70B50D467B4400F011F8E8
:100590000446284600F020F810B14FF0FF3070BD3F
:1005A000204670BD330F000001694A1C02610878C3
:1005B000704700B58FB0CDE90131002105910549A3
:1005C0007944CDE9031011466846FFF7CDFE0FB020
:1005D00000BD0000E5FFFFFF007B00F080007047DA
:1005E000754600F02BF8AE4605006946534620F0EC
:1005F0000700854618B020B5FFF7E0FDBDE82040B4
:100600004FF000064FF000074FF000084FF0000BCE
:1006100021F00701AC46ACE8C009ACE8C009ACE881
:10062000C009ACE8C0098D46704710B50446AFF369
:1006300000802046BDE81040FFF7ACBD0048704781
:100640005802002001491820ABBEFEE72600020038
:10065000704700BFFEE700002DE9F04107468846DD
:1006600015460024B8F1000F01D044F080040FB10A
:1006700044F0400405F01F00044304F0C00030B112
:10068000402808D0802817D0C02845D125E033481D
:100690003349086040E0334800683349884204D851
:1006A000304800683149884201D2BDE8F0812D48C8
:1006B00000682B4908602FE005F01F002C4991FBD2
:1006C000F0F027490860084600682A49884203D9A3
:1006D000224823490860E8E71EE0224800682249D2
:1006E000884204D81F4800682049884200D2DCE7CD
:1006F0001C480068C0EB001005F01F01B0FBF1F0D2
:1007000017490860084600681A49884203D9134807
:1007100013490860C9E700BF00BF002000F0FEFADF
:10072000C82000F00BFB00F01DFB204600F006FB8C
:1007300000F018FB00F016FB00F014FB012000F0A5
:10074000EDFA002603E000F00DFB701C86B24CF2BF
:1007500050308642F7DB00BFA7E700000048E80101
:10076000200000201C0000200051250200366E01F0
:1007700000389C1C005A62022DE9F04105460E46E5
:100780001746002426B144F0010444EA8710C4B29D
:10079000002000F0C3FA2901891CC9B241F0800091
:1007A00000F0CCFA00F0DEFA204600F0C7FA00F0C4
:1007B000D9FA00F0D7FA00F0D5FA012000F0AEFA2D
:1007C000BDE8F08170B504460E46002000F0A6FAA0
:1007D0002101091DC8B200F0B1FA00F0C3FA00F01F
:1007E000C1FA00F0BFFAFF2000F0A8FA054600F0B9
:1007F000B9FA012000F092FA25F020050EB145F07B
:100800002005002000F08AFA2101091DC9B241F03B
:10081000800000F093FA00F0A5FA284600F08EFA66
:1008200000F0A0FA00F09EFA00F09CFA012000F01F
:1008300075FA70BD2DE9F04704460D4616462007AF
:100840004FEA1069A846002717E0002000F066FA7A
:10085000484600F073FA00F085FA00F083FA00F0E1
:1008600081FAFF2000F06AFA08F8010B00F07AFA2A
:10087000012000F053FA781C87B2B742E5DB002074
:10088000BDE8F0872DE9F041044600250027254307
:10089000002000F043FAC22000F050FA00F062FAA3
:1008A000284600F04BFA00F05DFA00F05BFA0120F8
:1008B00000F034FA002000F031FA432000F03EFA54
:1008C00000F050FA00F04EFA00F04CFAFF2000F071
:1008D00035FA8046012000F021FA002000F01EFACF
:1008E000442000F02BFA00F03DFA00F03BFA00F053
:1008F00039FAFF2000F022FA0646012000F00EFA35
:10090000374648EA07273846BDE8F08170B5044607
:10091000002000F003FA2101091DC8B200F00EFA10
:1009200000F020FA00F01EFA00F01CFAFF2000F0A0
:1009300005FA054600F016FA012000F0EFF945F03F
:100940000805002000F0EAF92101091DC9B241F0B3
:10095000800000F0F3F900F005FA284600F0EEF907
:1009600000F000FA00F0FEF900F0FCF9012000F0C0
:10097000D5F970BD2DE9F04705460E461746984655
:10098000DDF8209000240EB144F008040FB144F0CB
:100990000404B8F1000F01D044F00204B9F1000FD3
:1009A00001D044F00104002000F0B8F92901491CED
:1009B000C9B241F0800000F0C1F900F0D3F920463F
:1009C00000F0BCF900F0CEF900F0CCF900F0CAF963
:1009D000012000F0A3F9BDE8F08700002DE9F84FF1
:1009E00005460F4690469946DDF828A068480068FD
:1009F00000EB8000C0F39C00B0FBF7F6701D0A21ED
:100A0000B0FBF1F606F0FF0BC6F3072000900020C4
:100A100000F084F92901C91CC8B200F08FF900F078
:100A2000A1F900F09FF900F09DF9FF2000F086F990
:100A3000044600F097F9012000F070F944F08004BA
:100A400024F00304B8F1050F09D0B8F1060F07D060
:100A5000B8F1070F07D0B8F1080F0AD106E00BE094
:100A600044F0010408E044F0020405E044F003040B
:100A700002E044F0030400BF00BF24F00404B9F115
:100A8000020F01D144F0040424F0080424F03004DF
:100A9000BAF1050F17D2DFE80AF00304070C1100C2
:100AA00012E044F008040FE044F0080444F010049D
:100AB0000AE044F0080444F0200405E044F008048F
:100AC00044F0300400E000BF00BF002000F026F931
:100AD0002901C91CC9B241F0800000F02FF900F0D3
:100AE00041F9204600F02AF900F03CF900F03AF90B
:100AF00000F038F9012000F011F9002000F00EF9A3
:100B00002907090E41F0800000F018F900F02AF9D9
:100B1000584600F013F900F025F900F023F900F031
:100B200021F9012000F0FAF8002000F0F7F829017F
:100B3000491CC9B241F0800000F000F900F012F940
:100B4000009800F0FBF800F00DF900F00BF900F050
:100B500009F9012000F0E2F824F08004002000F000
:100B6000DDF82901C91CC9B241F0800000F0E6F8A7
:100B700000F0F8F8204600F0E1F800F0F3F800F09B
:100B8000F1F800F0EFF8012000F0C8F8BDE8F88FA8
:100B90002000002070B504460025002000F0BEF8BB
:100BA0002101891CC8B200F0C9F800F0DBF800F0A0
:100BB000D9F800F0D7F800F0D5F8FF2000F0BEF823
:100BC000054600F0CFF8012000F0A8F8284670BDD7
:100BD00070B504460025002000F0A0F82101491D51
:100BE000C8B200F0ABF800F0BDF800F0BBF800F0C0
:100BF000B9F800F0B7F8FF2000F0A0F8054600F0C3
:100C0000B1F8012000F08AF8284670BD70B504469E
:100C10000025002000F082F82101891DC8B200F0F3
:100C20008DF800F09FF800F09DF800F09BF800F0C0
:100C300099F8FF2000F082F8054600F093F80120B3
:100C400000F06CF8284670BD2DE9F04105460E46CF
:100C50001746002000F062F82901091DC8B200F013
:100C60006DF800F07FF800F07DF800F07BF8FF20D1
:100C700000F064F8044600F075F8012000F04EF82A
:100C800016B144F0020401E024F0020417B144F06C
:100C9000010401E024F00104002000F03FF82901E4
:100CA000091DC9B241F0800000F048F800F05AF880
:100CB000204600F043F800F055F800F053F800F03B
:100CC00051F8012000F02AF8BDE8F0812DE9F04745
:100CD00004460D4616462007000E40F08009A8463F
:100CE000002716E0002000F019F8484600F026F82A
:100CF00000F038F818F8010B00F020F800F032F896
:100D000000F030F800F02EF8012000F007F8781C11
:100D100087B2B742E6DB0020BDE8F08710B5044695
:100D200024B11021044800F027F903E01021024803
:100D300000F020F910BD00000008014010B5044685
:100D40002146074800F01CFA00BF0221044800F0C9
:100D50000BFA0028F9D0024800F00FFAC0B210BD1B
:100D60000030014010B5012000F04AF810BD704776
:100D700010B56FF0040000F099FA0A4800680A49BB
:100D8000B0FBF1F0094908700846007800EB40011B
:100D9000C1EBC0104FF6FF7101EAC00004490880A2
:100DA00010BD00000800002000127A003000002072
:100DB000320000200146114A12884A434FF0E023D6
:100DC0005A6100229A611A46126942F001021A61C0
:100DD00000BF4FF0E022106900F001021AB100F4E8
:100DE0008032002AF5D04FF0E022126922F0010291
:100DF0004FF0E0231A6100229A6170473200002010
:100E00000146114A12784A434FF0E0235A6100220A
:100E10009A611A46126942F001021A6100BF4FF04E
:100E2000E022106900F001021AB100F48032002AB9
:100E3000F5D04FF0E022126922F001024FF0E023DA
:100E40001A6100229A617047300000202DE9F041BC
:100E5000024600250026002000230024002791F8E8
:100E600003C00CF00F0591F803C00CF0100CBCF19E
:100E7000000F03D091F802C04CEA050591F800C0BC
:100E8000BCF1000F31D0146800202BE04FF0010CB2
:100E90000CFA00F3B1F800C00CEA03069E4220D120
:100EA00083004FF00F0C0CFA03F7BC4305FA03FC68
:100EB0004CEA040491F803C0BCF1280F06D14FF0AE
:100EC000010C0CFA00FCC2F814C00AE091F803C04F
:100ED000BCF1480F05D14FF0010C0CFA00FCC2F830
:100EE00010C0401C0828D1D31460B1F800C0BCF178
:100EF000FF0F34DD546800202EE000F1080C4FF0A5
:100F0000010808FA0CF3B1F800C00CEA03069E428F
:100F100021D183004FF00F0C0CFA03F7BC4305FA04
:100F200003FC4CEA040491F803C0BCF1280F05D17E
:100F300000F1080C08FA0CF8C2F8148091F803C00C
:100F4000BCF1480F07D100F1080C4FF0010808FA76
:100F50000CF8C2F81080401C0828CED35460BDE8BD
:100F6000F0810246002093680B400BB1012000E0A5
:100F700000207047416170470161704700BFFEE784
:100F800000BFFEE77047704729B1064A92690243E5
:100F9000044B9A6104E0034A92698243014B9A61CF
:100FA000704700000010024030B5002100220024EC
:100FB0000023324D6D6805F00C0121B1042905D0E4
:100FC00008292CD105E02E4D05602BE02C4D056045
:100FD00028E02A4D6D6805F47012284D6D6805F4FF
:100FE0008034022505EB924264B9264D2D6805F048
:100FF00010051DB1224D554305600FE0224D5543AC
:1010000005600BE01D4D6D6805F400351DB11E4DEA
:101010005543056002E01A4D5543056002E0184D46
:10102000056000BF00BF154D6D6805F0F0010909AE
:10103000164D6B5C0568DD404560104D6D6805F42C
:10104000E061090A114D6B5C4568DD4085600B4D20
:101050006D6805F46051C90A0C4D6B5C4568DD4054
:10106000C560064D6D6805F44041890B084D6B5C09
:10107000C568B5FBF3F5056130BD00000010024006
:1010800000127A000038024000093D0034000020C0
:101090004400002000B587B0012141F20400FFF7B1
:1010A00073FF1020ADF818008DF81B0006A9264824
:1010B000FFF7CCFE2020ADF8180018208DF81B009B
:1010C00003208DF81A0006A91F48FFF7BFFE402035
:1010D000ADF8180004208DF81B0006A91A48FFF788
:1010E000B5FE8020ADF8180018208DF81B000320F5
:1010F0008DF81A0006A91448FFF7A8FE0020ADF8E5
:1011000004004FF48270ADF806000020ADF808002E
:10111000ADF80A00ADF80C004FF40070ADF80E0009
:101120002820ADF810000020ADF812000720ADF81F
:10113000140001A9054800F025F80121034800F03A
:1011400007F807B000BD0000000801400030014072
:1011500021B1028842F04002028004E002884FF68A
:10116000BF731A40028070470246002013890B406B
:101170000BB1012000E000207047014688897047CC
:101180008181704710B50022028802F441520B8819
:101190004C8823438C882343CC8823430C892343E6
:1011A0004C8923438C892343CC8923431A430280EF
:1011B000838B4FF2FF74234083830B8A038210BD1D
:1011C000704710B500F002F810BD00000CB500200B
:1011D000019000903348006840F480303149086045
:1011E00000BF3048006800F4003000900198401CB7
:1011F0000190009818B90198B0F5A06FF1D1294875
:10120000006800F4003010B10120009001E00020DF
:1012100000900098012843D12348006840F0100056
:10122000214908600846006820F00300086008466D
:10123000006840F0010008601A4840681949486099
:101240000846406848600846406840F4806048604E
:101250000846406820F47C1048600846406840F426
:10126000881048600846006840F08070086000BF41
:101270000C48006800F000700028F9D00948406868
:1012800020F00300074948600846406840F002002B
:10129000486000BF0348406800F00C000828F9D1FE
:1012A0000CBD00000010024000200240042808D1BC
:1012B0004FF0E021096941F004014FF0E022116193
:1012C00007E04FF0E021096921F004014FF0E0222E
:1012D000116170477047000010B51348006840F076
:1012E00001001149086008464068104908400E494D
:1012F0004860084600680E4908400B4908600846E7
:10130000006820F4802008600846406820F4FE0051
:1013100048604FF41F008860FFF753FF4FF00060F4
:101320000449086010BD0000001002400000FFF8F2
:10133000FFFFF6FE08ED00E010B54FF4E12000F0ED
:101340007FF810BD21B1828942F40052828104E00D
:1013500082894DF6FF731A40828170470246002051
:1013600013880B400BB1012000E000207047000003
:101370002DE9F04786B005460E460024A24600BF80
:10138000A14600272F462C8A4CF6FF700440F088B7
:1013900004432C82AC894EF6F3100440B0883189A6
:1013A0000843718908430443AC81AC8A4FF6FF407F
:1013B0000440B0890443AC8201A8FFF7F5FD1F4843
:1013C000874202D1DDF810A001E0DDF80CA0A88969
:1013D00000F4004040B10AEBCA0000EB0A1031688B
:1013E0004900B0FBF1F807E00AEBCA0000EB0A1075
:1013F00031688900B0FBF1F86420B8FBF0F004011B
:101400002009642101FB1089A88900F4004040B143
:10141000322000EBC900B0FBF1F000F007000443FC
:1014200008E0322000EB09106421B0FBF1F000F07D
:101430000F0004432C8106B0BDE8F087003801405E
:1014400010B586B00446012144F20400FFF79CFD6C
:101450004FF40070ADF8140003208DF8160018202A
:101460008DF8170005A90D48FFF7F0FC0194002046
:10147000ADF80800ADF80A00ADF80C00ADF81000AA
:101480000820ADF80E0001A90548FFF771FF012102
:101490000348FFF757FF06B010BD000000080140E9
:1014A00000380140C1F308028280704700BFFEE7A8
:1014B00030380A2801D20120704700207047000010
:1014C00070B504460D4600BF40210548FFF746FFB2
:1014D0000028F9D0E1B20248FFF7E4FF204670BDD2
:1014E0000038014008B500BF00BFFFF741FC3220C3
:1014F000FFF760FCFFF720FFBEA2C1A1C3A0FEF76B
:101500006FFEFFF7C7FD0D2201210846FFF7A4F883
:101510003220FFF74FFC4FF4E134C3A0FEF760FE2A
:1015200000200123082221460090FFF757FA0322EA
:1015300001210020FFF720F901210020FFF742F9E7
:10154000012003460246002100900846FFF712FAE8
:101550000020FFF7DBF9012211460020FFF774FBA2
:10156000B5A0FEF73DFE0020012308222146009091
:101570001846FFF733FA032201210846FFF7FCF86B
:1015800001210846FFF71EF901200346024600210B
:101590000090FFF7EFF90120FFF7B8F9012211469B
:1015A0001046FFF751FB002001230822214600903E
:1015B0000220FFF713FA032201210220FFF7DCF8D3
:1015C00001210220FFF7FEF8012003460246002118
:1015D00000900220FFF7CEF90220FFF797F90122D1
:1015E00011460220FFF730FB00200123082221468C
:1015F00000900320FFF7F2F9032201211046FFF7C4
:10160000BBF801210320FFF7DDF801200346024665
:10161000002100900320FFF7ADF90320FFF776F9D2
:10162000012211460320FFF70FFB89A0FEF7D8FD2A
:10163000DFE001218C48FFF794FC0028F8D18B49AA
:101640000870D1E089480078FFF7A4FA884908704B
:10165000084602788548017886A0FEF7C1FD8448D7
:10166000007800F00F00042848D006DC002876D06F
:10167000012807D0022805D1A3E0062803D00C28B2
:10168000F9D16DE0AAE079480078FFF7A1FA7F4927
:101690000870084601787EA0FEF7A2FD7348007826
:1016A000FFF7F0F87E4908800846008828B308460E
:1016B00002887C496D480078FFF7BCF87A486B498E
:1016C000097850F821007649098801447648674A2C
:1016D000127840F822106549097850F82130704896
:1016E00002886248017871A0FEF77AFD6C48028892
:1016F0006C495E480078FFF7E9FA6FE05B480078D4
:10170000FFF7C0F8664908800846008830B30846ED
:101710000288644955480078FFF78CF862485349BD
:10172000097850F821005E49098808445E494F4A0B
:10173000127841F8220008464C49097850F82130C7
:10174000574802884948017858A0FEF749FD544897
:101750000288544945480078FFF7B8FA3EE031E086
:1017600042480078FFF78EF84D4908800846008807
:1017700030B3084602884B493C480078FFF75AF8D6
:1017800049483A49097850F82100454909880844F0
:101790004549364A127841F822000846334909780B
:1017A00050F821303E480288304801783FA0FEF7CB
:1017B00017FD3B4802883B492C480078FFF786FA22
:1017C0000CE00BE029480078FFF720FA3E4908704A
:1017D000084601783DA0FEF703FD00BF00BF234887
:1017E0000078401C21490870204800780428FFF642
:1017F00029AF1EE741756720203320323032310097
:1018000031373A30363A313200000000434839343B
:10181000333420544553542053544152542025739B
:10182000202573200D0A000020494E495420446FA2
:101830006E652E20200D0A0020494E495420554146
:101840005254203020446F6E652E20200D0A000077
:1018500020494E49542055415254203320446F6E44
:10186000652E20200D0A0000000801400000002025
:10187000010000206964783A256420756172745F04
:101880006969723A253032780D0A000002000020A2
:10189000756172745F6C73723A253032780D0A008C
:1018A0000400002048000020480200206964783AC3
:1018B0002564207265633A256420746F74616C3A04
:1018C00025640D0A00000000030000207561727499
:1018D0005F6D73723A253032780D0A003031323341
:1018E0003435363738394142434445464030580054
:1018F0003031323334353637383961626364656686
:1019000040307800040000080000000000000002E1
:10191000000100001000000038190008000000203D
:10192000480000002C010008801900084800002031
:1019300070080000480100080000000000000000DE
:10194000006CDC0200000000000000000102030443
:10195000060708090048E8010048E8010000000007
:101960000000000000000000000000000000000077
:101970000102030401020304060708090204060821
:04000005080000F1FE
:00000001FF
