:020000040800F2
:100000009006002095010008350600082D0600081E
:100010003106000853040008250A0008000000000B
:10002000000000000000000000000000450700087C
:1000300057040008000000004D0600085908000899
:10004000AF010008AF010008AF010008AF010008D0
:10005000AF010008AF010008AF010008AF010008C0
:10006000AF010008AF010008AF010008AF010008B0
:10007000AF010008AF010008AF010008AF010008A0
:10008000AF010008AF010008AF010008AF01000890
:10009000AF010008AF010008AF010008AF01000880
:1000A000AF010008AF010008AF010008AF01000870
:1000B000AF010008AF010008AF010008AF01000860
:1000C000AF010008AF010008AF010008AF01000850
:1000D000AF010008AF010008AF010008AF01000840
:1000E000AF010008AF010008AF010008AF01000830
:1000F00000F002F800F03FF80AA090E8000C8244FB
:100100008344AAF10107DA4501D100F034F8AFF2D7
:10011000090EBAE80F0013F0010F18BFFB1A43F0E5
:10012000010318479C090000BC090000103A24BFD5
:1001300078C878C1FAD8520724BF30C830C144BF4C
:1001400004680C607047000000230024002500268E
:10015000103A28BF78C1FBD8520728BF30C148BF2A
:100160000B607047642900F07580002070471FB550
:100170001FBD10B510BD00F033F91146FFF7F7FFB2
:1001800000F064FC00F051F903B4FFF7F2FF03BC88
:1001900000F058F90948804709480047FEE7FEE7A4
:1001A000FEE7FEE7FEE7FEE7FEE7FEE7FEE7FEE727
:1001B00004480549054A064B704700005D080008E1
:1001C000F10000089000002090060020900200201E
:1001D000900200200FB4044910B503AA029800F061
:1001E000D1F810BC5DF814FB140000202DE9F0419B
:1001F0000E460446002020622046E168884730B35E
:10020000252805D0D4E901219047206A401CF2E757
:10021000E168204600278847050018D0A5F1410075
:10022000192802D820354FF4006732462946204667
:100230002760FFF797FF40B1012804D0F61D26F094
:1002400007060836D8E7361DD6E72846DAE7206ADB
:10025000BDE8F0812DE9F0410646002410687529BB
:10026000314616A510D0AFF30080002802DA4042D4
:1002700013A507E031688A0701D512A502E04907F6
:1002800004D511A5012401E0AFF3008000210A226A
:1002900006F1240709E0B0FBF2FCB0FBF2F302FB2D
:1002A0001C00303078541846491C0028F3D12346EE
:1002B0002A463046BDE8F04100F00BB800000000CF
:1002C0002D0000002B000000200000007047704748
:1002D00070472DE9F0470D4699469246044600F1D5
:1002E00024080168880604D5E06921F01001216026
:1002F00000E00120A84201DD471B00E00027A169C2
:100300007A1902EB0900081AA0612078C00602D40D
:100310002046AFF30080002608E0D4E901211AF856
:1003200006009047206A401C761C20624E45F4DB94
:100330002078C0060AD52046AFF3008006E0D4E955
:10034000012130209047206A401C2062381EA7F10E
:100350000107F4DC07E0D4E9012118F80500904713
:10036000206A401C2062281EA5F10105F3DC20460E
:10037000AFF300802078000602D50220BDE8F087A8
:100380000120FBE7074B70B50D467B4400F011F8E8
:100390000446284600F020F810B14FF0FF3070BD41
:1003A000204670BD9B06000001694A1C0261087866
:1003B000704700B58FB0CDE90131002105910549A5
:1003C0007944CDE9031011466846FFF70FFF0FB0DF
:1003D00000BD0000E5FFFFFF007B00F080007047DC
:1003E000754600F02BF8AE4605006946534620F0EE
:1003F0000700854618B020B5FFF7DAFEBDE82040BB
:100400004FF000064FF000074FF000084FF0000BD0
:1004100021F00701AC46ACE8C009ACE8C009ACE883
:10042000C009ACE8C0098D46704710B50446AFF36B
:1004300000802046BDE81040FFF7A6BE0048704788
:100440003000002001491820ABBEFEE72600020064
:10045000704700BFFEE7704710B56FF0040000F072
:10046000E7F90A4800680A49B0FBF1F00949087049
:100470000846007800EB4001C1EBC0104FF6FF7159
:1004800001EAC0000449088010BD000000000020FF
:1004900000127A00180000201A0000200146114ABC
:1004A00012884A434FF0E0235A6100229A611A46AB
:1004B000126942F001021A6100BF4FF0E022106998
:1004C00000F001021AB100F48032002AF5D04FF09A
:1004D000E022126922F001024FF0E0231A610022AB
:1004E0009A6170471A0000202DE9F041024600256C
:1004F0000026002000230024002791F803C00CF000
:100500000F0591F803C00CF0100CBCF1000F03D0E4
:1005100091F802C04CEA050591F800C0BCF1000F4B
:1005200031D0146800202BE04FF0010C0CFA00F3DE
:10053000B1F800C00CEA03069E4220D183004FF0C0
:100540000F0C0CFA03F7BC4305FA03FC4CEA040455
:1005500091F803C0BCF1280F06D14FF0010C0CFA42
:1005600000FCC2F814C00AE091F803C0BCF1480FC7
:1005700005D14FF0010C0CFA00FCC2F810C0401C71
:100580000828D1D31460B1F800C0BCF1FF0F34DDEE
:10059000546800202EE000F1080C4FF0010808FA22
:1005A0000CF3B1F800C00CEA03069E4221D183008F
:1005B0004FF00F0C0CFA03F7BC4305FA03FC4CEAAE
:1005C000040491F803C0BCF1280F05D100F1080C18
:1005D00008FA0CF8C2F8148091F803C0BCF1480F77
:1005E00007D100F1080C4FF0010808FA0CF8C2F826
:1005F0001080401C0828CED35460BDE8F081000074
:1006000008B50121102000F023F84FF40050ADF898
:10061000000010208DF8030003208DF802006946C9
:100620000148FFF761FF08BD0010014000BFFEE771
:1006300000BFFEE77047000002490143024A116013
:10064000704700000000FA050CED00E07047000064
:1006500029B1064A92690243044B9A6104E0034AB5
:1006600092698243014B9A6170470000001002407A
:1006700030B500210022002400232D4D6D6805F0C7
:100680000C0121B1042905D0082923D105E0294D09
:10069000056022E0274D05601FE0254D6D6805F4DB
:1006A0007012234D6D6805F48034022505EB9242EB
:1006B0001CB9214D554305600BE01D4D6D6805F4D7
:1006C00000351DB11C4D5543056002E0194D5543E1
:1006D000056002E0174D056000BF00BF144D6D6856
:1006E00005F0F0010909154D6B5C0568DD404560BA
:1006F0000F4D6D6805F4E061090A104D6B5C4568AB
:10070000DD4085600A4D6D6805F46051C90A0B4DE6
:100710006B5C4568DD40C560054D6D6805F4404182
:10072000890B074D6B5CC568B5FBF3F5056130BD02
:100730000010024000127A0000093D001C00002059
:100740002C000020704710B500F002F810BD00002A
:100750000CB50020019000903348006840F48030D0
:100760003149086000BF3048006800F40030009054
:100770000198401C0190009818B90198B0F5A06F3D
:10078000F1D12948006800F4003010B10120009038
:1007900001E0002000900098012843D12348006820
:1007A00040F01000214908600846006820F003006E
:1007B00008600846006840F0020008601A48406877
:1007C000194948600846406848600846406840F457
:1007D000806048600846406820F47C104860084605
:1007E000406840F4E81048600846006840F08070B7
:1007F000086000BF0C48006800F000700028F9D0C5
:100800000948406820F003000749486008464068EE
:1008100040F00200486000BF0348406800F00C0050
:100820000828F9D10CBD0000001002400020024051
:10083000042808D14FF0E021096941F004014FF08C
:10084000E022116107E04FF0E021096921F0040185
:100850004FF0E022116170477047000010B5134857
:10086000006840F0010011490860084640681049DE
:1008700008400E494860084600680E4908400B4988
:1008800008600846006820F4802008600846406838
:1008900020F4FE0048604FF41F008860FFF753FF0C
:1008A0004FF000600449086010BD000000100240D5
:1008B0000000FFF8FFFFF6FE08ED00E021B182899D
:1008C00042F40052828104E082894DF6FF731A409F
:1008D000828170470246002013880B400BB1012033
:1008E00000E00020704700002DE9F04786B0054683
:1008F0000E460024A24600BFA14600272F462C8AA0
:100900004CF6FF700440F08804432C82AC894EF60C
:10091000F3100440B08831890843718908430443C7
:10092000AC81AC8A4FF6FF400440B0890443AC82EE
:1009300001A8FFF79DFE1F48874202D1DDF810A0F5
:1009400001E0DDF80CA0A88900F4004040B10AEBFA
:10095000CA0000EB0A1031684900B0FBF1F807E06B
:100960000AEBCA0000EB0A1031688900B0FBF1F80D
:100970006420B8FBF0F004012009642101FB108918
:10098000A88900F4004040B1322000EBC900B0FB60
:10099000F1F000F00700044308E0322000EB0910FA
:1009A0006421B0FBF1F000F00F0004432C8106B08D
:1009B000BDE8F0870038014010B586B0044601213B
:1009C00044F20400FFF744FE4FF40070ADF8140049
:1009D00003208DF8160018208DF8170005A90D4882
:1009E000FFF782FD01940020ADF80800ADF80A0081
:1009F000ADF80C00ADF810000820ADF80E0001A90C
:100A00000548FFF771FF01210348FFF757FF06B0C4
:100A100010BD00000008014000380140C1F3080289
:100A20008280704700BFFEE770B504460D4600BFE8
:100A300040210548FFF74EFF0028F9D0E1B20248F7
:100A4000FFF7ECFF204670BD003801404FF4A06076
:100A5000FFF7F2FDFFF700FD4FF4E130FFF7ACFFC9
:100A6000FFF7CEFD0A4801680AA0FFF7B3FB0DA00F
:100A7000FFF7B0FB0AE04FF47A70FFF70FFD0E4866
:100A8000006880F001000D49C1F8B401F3E70000EF
:100A90000000002053797374656D436C6B3A2564D4
:100AA0000D0A00004750494F20546F67676C65205E
:100AB000544553540D0A0000B40122420000224262
:100AC000E00A000800000020300000002C010008AF
:100AD000100B0008300000206006000048010008EC
:100AE00000A24A040000000000000000010203040C
:100AF00006070809000000000000000000000000D8
:100B0000010203040102030406070809020406089F
:04000005080000F1FE
:00000001FF
