:020000040800F2
:10000000D8060020950100085F0600085706000882
:100010005B060008AB0400089D0B00080000000010
:10002000000000000000000000000000BD08000803
:10003000AF0400080000000061060008D1090008B4
:10004000AF010008AF010008AF010008AF010008D0
:10005000AF010008AF010008AF010008AF010008C0
:10006000AF010008AF010008AF010008AF010008B0
:10007000AF010008AF010008AF010008AF010008A0
:10008000AF010008AF010008AF010008AF01000890
:10009000AF010008AF010008AF010008AF01000880
:1000A000AF010008AF010008AF010008AF01000870
:1000B000AF010008AF010008AF010008AF01000860
:1000C000AF010008AF010008AF010008AF01000850
:1000D000AF010008AF010008AF010008AF01000840
:1000E000AF010008AF010008AF010008AF01000830
:1000F00000F002F800F03FF80AA090E8000C8244FB
:100100008344AAF10107DA4501D100F034F8AFF2D7
:10011000090EBAE80F0013F0010F18BFFB1A43F0E5
:1001200001031847780B0000980B0000103A24BF19
:1001300078C878C1FAD8520724BF30C830C144BF4C
:1001400004680C607047000000230024002500268E
:10015000103A28BF78C1FBD8520728BF30C148BF2A
:100160000B607047642900F07580002070471FB550
:100170001FBD10B510BD00F05FF91146FFF7F7FF86
:1001800000F020FD00F07DF903B4FFF7F2FF03BC9F
:1001900000F084F90948804709480047FEE7FEE778
:1001A000FEE7FEE7FEE7FEE7FEE7FEE7FEE7FEE727
:1001B00004480549054A064B70470000D509000868
:1001C000F1000008D8000020D8060020D802002046
:1001D000D80200200FB4044910B503AA029800F019
:1001E000FDF810BC5DF814FB380000202DE9F0414B
:1001F0000E460446002020622046E168884730B35E
:10020000252805D0D4E901219047206A401CF2E757
:10021000E168204600278847050018D0A5F1410075
:10022000192802D820354FF4006732462946204667
:100230002760FFF797FF40B1012804D0F61D26F094
:1002400007060836D8E7361DD6E72846DAE7206ADB
:10025000BDE8F0812DE9F0410646002410687529BB
:10026000314616A510D0AFF30080002802DA4042D4
:1002700013A507E031688A0701D512A502E04907F6
:1002800004D511A5012401E0AFF3008000210A226A
:1002900006F1240709E0B0FBF2FCB0FBF2F302FB2D
:1002A0001C00303078541846491C0028F3D12346EE
:1002B0002A463046BDE8F04100F037B800000000A3
:1002C0002D0000002B0000002000000040EA010388
:1002D00010B59B070FD1042A0DD310C808C9121FEF
:1002E0009C42F8D020BA19BA884201D9012010BD29
:1002F0004FF0FF3010BD1AB1D30703D0521C07E0F6
:10030000002010BD10F8013B11F8014B1B1B07D159
:1003100010F8013B11F8014B1B1B01D1921EF1D1CA
:10032000184610BD7047704770472DE9F0470D46DD
:1003300099469246044600F124080168880604D5CF
:10034000E06921F01001216000E00120A84201DDF8
:10035000471B00E00027A1697A1902EB0900081A7F
:10036000A0612078C00602D42046AFF300800026AA
:1003700008E0D4E901211AF806009047206A401CE1
:10038000761C20624E45F4DB2078C0060AD5204654
:10039000AFF3008006E0D4E9012130209047206AC5
:1003A000401C2062381EA7F10107F4DC07E0D4E905
:1003B000012118F805009047206A401C2062281E81
:1003C000A5F10105F3DC2046AFF30080207800069C
:1003D00002D50220BDE8F0870120FBE7074B70B58E
:1003E0000D467B4400F011F80446284600F020F842
:1003F00010B14FF0FF3070BD204670BDBB0700004C
:1004000001694A1C02610878704700B58FB0CDE9D8
:1004100001310021059105497944CDE903101146C8
:100420006846FFF7E3FE0FB000BD0000E5FFFFFFE9
:10043000007B00F080007047754600F02BF8AE4658
:1004400005006946534620F00700854618B020B5E0
:10045000FFF7AEFEBDE820404FF000064FF000076A
:100460004FF000084FF0000B21F00701AC46ACE85C
:10047000C009ACE8C009ACE8C009ACE8C0098D46C9
:10048000704710B50446AFF300802046BDE8104029
:10049000FFF77ABE00487047780000200149182015
:1004A000ABBEFEE726000200704700BFFEE77047C4
:1004B00010B56FF0040000F077FA0A4800680A49A6
:1004C000B0FBF1F0094908700846007800EB4001E4
:1004D000C1EBC0104FF6FF7101EAC000044908806B
:1004E00010BD00002400002000127A003C00002013
:1004F0003E0000200146114A12884A434FF0E02393
:100500005A6100229A611A46126942F001021A6188
:1005100000BF4FF0E022106900F001021AB100F4B0
:100520008032002AF5D04FF0E022126922F0010259
:100530004FF0E0231A6100229A6170473E000020CC
:100540002DE9F0410246002500260020002300246A
:10055000002791F803C00CF00F0591F803C00CF0D0
:10056000100CBCF1000F03D091F802C04CEA050555
:1005700091F800C0BCF1000F31D0146800202BE0CE
:100580004FF0010C0CFA00F3B1F800C00CEA0306BE
:100590009E4220D183004FF00F0C0CFA03F7BC43AE
:1005A00005FA03FC4CEA040491F803C0BCF1280FDF
:1005B00006D14FF0010C0CFA00FCC2F814C00AE09E
:1005C00091F803C0BCF1480F05D14FF0010C0CFAB3
:1005D00000FCC2F810C0401C0828D1D31460B1F848
:1005E00000C0BCF1FF0F34DD546800202EE000F1A4
:1005F000080C4FF0010808FA0CF3B1F800C00CEA3F
:1006000003069E4221D183004FF00F0C0CFA03F732
:10061000BC4305FA03FC4CEA040491F803C0BCF1A6
:10062000280F05D100F1080C08FA0CF8C2F8148064
:1006300091F803C0BCF1480F07D100F1080C4FF04E
:10064000010808FA0CF8C2F81080401C0828CED324
:100650005460BDE8F08100BFFEE700BFFEE77047D1
:100660007047000029B1064A92690243044B9A611F
:1006700004E0034A92698243014B9A61704700008B
:100680000010024030B50021002200240023324D2A
:100690006D6805F00C0121B1042905D008292CD181
:1006A00005E02E4D05602BE02C4D056028E02A4D1D
:1006B0006D6805F47012284D6D6805F480340225CC
:1006C00005EB924264B9264D2D6805F010051DB169
:1006D000224D554305600FE0224D554305600BE068
:1006E0001D4D6D6805F400351DB11E4D5543056067
:1006F00002E01A4D5543056002E0184D056000BF49
:1007000000BF154D6D6805F0F0010909164D6B5CD1
:100710000568DD404560104D6D6805F4E061090A2B
:10072000114D6B5C4568DD4085600B4D6D6805F4CF
:100730006051C90A0C4D6B5C4568DD40C560064DD3
:100740006D6805F44041890B084D6B5CC568B5FBCD
:10075000F3F5056130BD00000010024000127A0080
:100760000038024000093D004000002050000020F9
:1007700021B1028842F04002028004E002884FF674
:10078000BF731A400280704700B587B0012141F263
:100790000400FFF767FF1020ADF8180048208DF81F
:1007A0001B0006A92748FFF7CBFE2020ADF8180054
:1007B00018208DF81B0003208DF81A0006A9214887
:1007C000FFF7BEFE4020ADF8180004208DF81B0096
:1007D00006A91C48FFF7B4FE8020ADF818001820C9
:1007E0008DF81B0003208DF81A0006A91548FFF7A5
:1007F000A7FE0020ADF804004FF48270ADF80600AB
:100800004FF40060ADF808000020ADF80A00ADF824
:100810000C00ADF80E002820ADF810008020ADF8D7
:1008200012000720ADF8140001A9074800F01CF8D9
:100830000021054800F036F801210348FFF798FF32
:1008400007B000BD00080140003001400246002012
:1008500013890B400BB1012000E0002070470146D6
:10086000888970478181704710B50022028802F4A0
:1008700041520B884C8823438C882343CC882343E4
:100880000C8923434C8923438C892343CC892343FC
:100890001A430280838B4FF2FF74234083830B8AB9
:1008A000038210BD21B1828842F00402828004E0FC
:1008B00082884FF6FB731A4082807047704710B5EC
:1008C00000F002F810BD00000CB50020019000906F
:1008D0003348006840F480303149086000BF304838
:1008E000006800F4003000900198401C01900098CE
:1008F00018B90198B0F5A06FF1D12948006800F44B
:10090000003010B10120009001E00020009000981C
:10091000012843D12348006840F0100021490860B5
:100920000846006820F0030008600846006840F0B0
:10093000010008601A484068194948600846406844
:1009400048600846406840F4806048600846406857
:1009500020F47C1048600846406840F488104860E5
:100960000846006840F08070086000BF0C480068CE
:1009700000F000700028F9D00948406820F003001A
:10098000074948600846406840F00200486000BFE0
:100990000348406800F00C000828F9D10CBD0000A5
:1009A0000010024000200240042808D14FF0E0214E
:1009B000096941F004014FF0E022116107E04FF0B6
:1009C000E021096921F004014FF0E0221161704734
:1009D0007047000010B51348006840F0010011494D
:1009E000086008464068104908400E4948600846BB
:1009F00000680E4908400B4908600846006820F46A
:100A0000802008600846406820F4FE0048604FF4EB
:100A10001F008860FFF753FF4FF000600449086033
:100A200010BD0000001002400000FFF8FFFFF6FEBE
:100A300008ED00E021B1828942F40052828104E095
:100A400082894DF6FF731A4082817047024600206A
:100A500013880B400BB1012000E00020704700001C
:100A60002DE9F04786B005460E460024A24600BF99
:100A7000A14600272F462C8A4CF6FF700440F088D0
:100A800004432C82AC894EF6F3100440B0883189BF
:100A90000843718908430443AC81AC8A4FF6FF4098
:100AA0000440B0890443AC8201A8FFF7EBFD1F4866
:100AB000874202D1DDF810A001E0DDF80CA0A88982
:100AC00000F4004040B10AEBCA0000EB0A103168A4
:100AD0004900B0FBF1F807E00AEBCA0000EB0A108E
:100AE00031688900B0FBF1F86420B8FBF0F0040134
:100AF0002009642101FB1089A88900F4004040B15D
:100B0000322000EBC900B0FBF1F000F00700044315
:100B100008E0322000EB09106421B0FBF1F000F096
:100B20000F0004432C8106B0BDE8F0870038014077
:100B300010B586B00446012144F20400FFF792FD8F
:100B40004FF40070ADF8140003208DF81600182043
:100B50008DF8170005A90D48FFF7F2FC019400205D
:100B6000ADF80800ADF80A00ADF80C00ADF81000C3
:100B70000820ADF80E0001A90548FFF771FF01211B
:100B80000348FFF757FF06B010BD00000008014002
:100B900000380140C1F308028280704700BFFEE7C1
:100BA00070B504460D4600BF40210548FFF74EFFD3
:100BB0000028F9D0E1B20248FFF7ECFF204670BDF3
:100BC0000038014000240025FFF772FC4FF4E120BB
:100BD000FFF7AEFF2148016821A0FFF7FBFAFFF7FE
:100BE000D3FD23A0FFF7F6FA4FF4FA60FFF782FC7B
:100BF00032E01DE0122C0CDA02212048FFF726FE1D
:100C000038B11F4830F814101C48FFF72BFE601C49
:100C1000C4B2122D0CDA01211848FFF717FE38B1C3
:100C20001648FFF71CFE174921F81500681CC5B2CD
:100C3000122CDFDB122DDDDB122212491048FFF7E8
:100C400045FBC6B21EB910A0FFF7C4FA02E010A01F
:100C5000FFF7C0FA00BFFEE7CBE70000240000204A
:100C600053797374656D436C6B3A25640D0A00000B
:100C7000486F7374204D6F64650D0A0000300140A9
:100C8000000000205400002053616D650D0A000033
:100C9000446966666572656E740D0A00BC0C0008D6
:100CA00000000020540000002C010008100D000876
:100CB00054000020840600004801000801010202DF
:100CC000030304040505060611111212131314146C
:100CD0001515161621212222232324242525262614
:100CE000006CDC02000000000000000001020304B0
:100CF00006070809000000000000000000000000D6
:100D0000010203040102030406070809020406089D
:04000005080000F1FE
:00000001FF
